{"contracts/Token.sol":{"Token":{"abi":[{"inputs":[],"stateMutability":"nonpayable","type":"constructor"},{"anonymous":false,"inputs":[{"indexed":false,"internalType":"uint256","name":"score","type":"uint256"}],"name":"Fixed_Score_set","type":"event"},{"anonymous":false,"inputs":[{"indexed":true,"internalType":"address","name":"user","type":"address"},{"indexed":false,"internalType":"uint256","name":"role","type":"uint256"}],"name":"User_Added","type":"event"},{"anonymous":false,"inputs":[{"indexed":false,"internalType":"uint256","name":"score","type":"uint256"}],"name":"Variable_Score_set","type":"event"},{"anonymous":false,"inputs":[{"indexed":true,"internalType":"address","name":"_from","type":"address"},{"indexed":true,"internalType":"address","name":"_to","type":"address"},{"indexed":false,"internalType":"uint256","name":"_value","type":"uint256"}],"name":"withdraw_fixed_pay_event","type":"event"},{"anonymous":false,"inputs":[{"indexed":true,"internalType":"address","name":"_from","type":"address"},{"indexed":true,"internalType":"address","name":"_to","type":"address"},{"indexed":false,"internalType":"uint256","name":"_value","type":"uint256"}],"name":"withdraw_variable_pay_event","type":"event"},{"inputs":[{"internalType":"address","name":"user","type":"address"},{"internalType":"uint256","name":"role","type":"uint256"}],"name":"addUser","outputs":[],"stateMutability":"nonpayable","type":"function"},{"inputs":[{"internalType":"address","name":"","type":"address"}],"name":"fixed_score","outputs":[{"internalType":"uint256","name":"","type":"uint256"}],"stateMutability":"view","type":"function"},{"inputs":[{"internalType":"uint256","name":"timestamp","type":"uint256"}],"name":"getDay","outputs":[{"internalType":"uint256","name":"day","type":"uint256"}],"stateMutability":"pure","type":"function"},{"inputs":[],"name":"owner","outputs":[{"internalType":"address","name":"","type":"address"}],"stateMutability":"view","type":"function"},{"inputs":[{"internalType":"uint256","name":"","type":"uint256"},{"internalType":"uint256","name":"","type":"uint256"}],"name":"roles","outputs":[{"internalType":"address","name":"","type":"address"}],"stateMutability":"view","type":"function"},{"inputs":[{"internalType":"uint256","name":"fixedScore","type":"uint256"}],"name":"setFixedMonthlyScore","outputs":[],"stateMutability":"nonpayable","type":"function"},{"inputs":[{"internalType":"bool","name":"topToBottom","type":"bool"}],"name":"setVariableDirection","outputs":[],"stateMutability":"nonpayable","type":"function"},{"inputs":[{"internalType":"uint256","name":"variableScore","type":"uint256"}],"name":"setVariableMonthlyScore","outputs":[],"stateMutability":"nonpayable","type":"function"},{"inputs":[{"internalType":"uint256","name":"","type":"uint256"}],"name":"users","outputs":[{"internalType":"address","name":"","type":"address"}],"stateMutability":"view","type":"function"},{"inputs":[{"internalType":"address","name":"","type":"address"}],"name":"variable_score","outputs":[{"internalType":"uint256","name":"","type":"uint256"}],"stateMutability":"view","type":"function"},{"inputs":[],"name":"withdraw_fixed_pay","outputs":[],"stateMutability":"nonpayable","type":"function"},{"inputs":[],"name":"withdraw_variable_pay","outputs":[],"stateMutability":"nonpayable","type":"function"}],"evm":{"bytecode":{"linkReferences":{},"object":"60806040526002805460ff191660011790556000600555600680546001600160a01b03191673b37a89580231d8a0c47518e6e311473816c48e9d17905534801561004857600080fd5b50600080546001600160a01b03191633179055610bfa8061006a6000396000f3fe608060405234801561001057600080fd5b50600436106100b45760003560e01c806365c728401161007157806365c72840146101345780637d0d3ecd146101555780638da5cb5b14610175578063d301719314610188578063fc05ec6b1461019b578063ff658d18146101bb57600080fd5b806314bba8d9146100b957806330d5f232146100c357806333f47aae146100f3578063365b98b2146101065780633d0e83b7146101195780633fe958591461012c575b600080fd5b6100c16101ce565b005b6100d66100d1366004610a0c565b610327565b6040516001600160a01b0390911681526020015b60405180910390f35b6100c1610101366004610a3c565b61035f565b6100d6610114366004610a60565b6103a2565b6100c1610127366004610a60565b6103cc565b6100c1610441565b610147610142366004610a60565b610595565b6040519081526020016100ea565b610147610163366004610a95565b60086020526000908152604090205481565b6000546100d6906001600160a01b031681565b6100c1610196366004610ab0565b6105a6565b6101476101a9366004610a95565b60096020526000908152604090205481565b6100c16101c9366004610a60565b6106b8565b33600090815260086020526040902054429061022a5760405162461bcd60e51b8152602060048201526016602482015275596f752063616e277420676574206d6f6e657921212160501b60448201526064015b60405180910390fd5b600654336000818152600860205260409081902054905163a9059cbb60e01b8152600481019290925260248201526001600160a01b039091169063a9059cbb90604401602060405180830381600087803b15801561028757600080fd5b505af115801561029b573d6000803e3d6000fd5b505050506040513d601f19601f820116820180604052508101906102bf9190610ada565b5060008054338083526008602090815260409384902054935193845290926001600160a01b03909216917f8422e69c9cfa5c44b34c1d6050c86b5dcd958a8ef60ff1665bd0ba241118d4ab910160405180910390a35033600090815260086020526040812055565b6007602052816000526040600020818154811061034357600080fd5b6000918252602090912001546001600160a01b03169150829050565b6000546001600160a01b031633146103895760405162461bcd60e51b815260040161022190610af7565b6002805460ff191682151517905561039f610774565b50565b600181815481106103b257600080fd5b6000918252602090912001546001600160a01b0316905081565b6000546001600160a01b031633146103f65760405162461bcd60e51b815260040161022190610af7565b6004819055610403610774565b7fc5d63733120748b0343a1de3766719dddb8a29f45ac6856e571912b7dd7d4e5460045460405161043691815260200190565b60405180910390a150565b3360009081526009602052604090205442906104985760405162461bcd60e51b8152602060048201526016602482015275596f752063616e277420676574206d6f6e657921212160501b6044820152606401610221565b600654336000818152600960205260409081902054905163a9059cbb60e01b8152600481019290925260248201526001600160a01b039091169063a9059cbb90604401602060405180830381600087803b1580156104f557600080fd5b505af1158015610509573d6000803e3d6000fd5b505050506040513d601f19601f8201168201806040525081019061052d9190610ada565b5060008054338083526009602090815260409384902054935193845290926001600160a01b03909216917fd217c5246a6e83f8db513db1f2c9bc99f520d24ebe8c046dc028f597caf3abbc910160405180910390a35033600090815260096020526040812055565b60006105a082610951565b92915050565b6000546001600160a01b031633146105d05760405162461bcd60e51b815260040161022190610af7565b6001805480820182557fb10e2d527612073b26eecdfd717e6a320cf44b4afac2b0732d9fcbe2b7fa0cf60180546001600160a01b0385166001600160a01b03199182168117909255600084815260076020908152604082208054958601815582529020909201805490921617905560055481111561064e5760058190555b6003546001600160a01b038316600090815260086020526040902055610672610774565b816001600160a01b03167e6f1daa982b4e4055bfb8cfc952dfd2e41973f284eb23011afe4400a1c0cf91826040516106ac91815260200190565b60405180910390a25050565b6000546001600160a01b031633146106e25760405162461bcd60e51b815260040161022190610af7565b600381905560005b6001548110156107435781600860006001848154811061070c5761070c610b2e565b60009182526020808320909101546001600160a01b031683528201929092526040019020558061073b81610b5a565b9150506106ea565b506040518181527fb7ebb57e0084a68fd40f3c49b6aef62866fd14401848affd7e9b72dbd64e7e6490602001610436565b6000546001600160a01b0316331461079e5760405162461bcd60e51b815260040161022190610af7565b60045460025460ff16151560011415610882576005545b801561087e576000818152600760205260409020541561086c576107da600283610b8b565b915060005b60008281526007602052604090205481101561086a5760008281526007602052604090205461080e9084610b8b565b6000838152600760205260408120805460099291908590811061083357610833610b2e565b60009182526020808320909101546001600160a01b031683528201929092526040019020558061086281610b5a565b9150506107df565b505b8061087681610bad565b9150506107b5565b5050565b60015b600554811161087e576000818152600760205260409020541561093f576108ad600283610b8b565b915060005b60008281526007602052604090205481101561093d576000828152600760205260409020546108e19084610b8b565b6000838152600760205260408120805460099291908590811061090657610906610b2e565b60009182526020808320909101546001600160a01b031683528201929092526040019020558061093581610b5a565b9150506108b2565b505b8061094981610b5a565b915050610885565b60006109686109636201518084610b8b565b610970565b949350505050565b60008080836226496581018262023ab1600483020590506004600362023ab18302010590910390600062164b09610fa0600185010205905060046105b58202058303601f019250600061098f84605002816109cd576109cd610b75565b0590506000605061098f83020585039050600b820560301994909401606402929092018301996002600c90940290910392909201975095509350505050565b60008060408385031215610a1f57600080fd5b50508035926020909101359150565b801515811461039f57600080fd5b600060208284031215610a4e57600080fd5b8135610a5981610a2e565b9392505050565b600060208284031215610a7257600080fd5b5035919050565b80356001600160a01b0381168114610a9057600080fd5b919050565b600060208284031215610aa757600080fd5b610a5982610a79565b60008060408385031215610ac357600080fd5b610acc83610a79565b946020939093013593505050565b600060208284031215610aec57600080fd5b8151610a5981610a2e565b6020808252601b908201527f4f6e6c79206f776e6572732061726520616c6c6f776564212121210000000000604082015260600190565b634e487b7160e01b600052603260045260246000fd5b634e487b7160e01b600052601160045260246000fd5b6000600019821415610b6e57610b6e610b44565b5060010190565b634e487b7160e01b600052601260045260246000fd5b600082610ba857634e487b7160e01b600052601260045260246000fd5b500490565b600081610bbc57610bbc610b44565b50600019019056fea2646970667358221220b11fe0ae6b33ca84e815480340e781b1394aceedd53c5509260b3bce6aa8fc6864736f6c63430008090033","opcodes":"PUSH1 0x80 PUSH1 0x40 MSTORE PUSH1 0x2 DUP1 SLOAD PUSH1 0xFF NOT AND PUSH1 0x1 OR SWAP1 SSTORE PUSH1 0x0 PUSH1 0x5 SSTORE PUSH1 0x6 DUP1 SLOAD PUSH1 0x1 PUSH1 0x1 PUSH1 0xA0 SHL SUB NOT AND PUSH20 0xB37A89580231D8A0C47518E6E311473816C48E9D OR SWAP1 SSTORE CALLVALUE DUP1 ISZERO PUSH2 0x48 JUMPI PUSH1 0x0 DUP1 REVERT JUMPDEST POP PUSH1 0x0 DUP1 SLOAD PUSH1 0x1 PUSH1 0x1 PUSH1 0xA0 SHL SUB NOT AND CALLER OR SWAP1 SSTORE PUSH2 0xBFA DUP1 PUSH2 0x6A PUSH1 0x0 CODECOPY PUSH1 0x0 RETURN INVALID PUSH1 0x80 PUSH1 0x40 MSTORE CALLVALUE DUP1 ISZERO PUSH2 0x10 JUMPI PUSH1 0x0 DUP1 REVERT JUMPDEST POP PUSH1 0x4 CALLDATASIZE LT PUSH2 0xB4 JUMPI PUSH1 0x0 CALLDATALOAD PUSH1 0xE0 SHR DUP1 PUSH4 0x65C72840 GT PUSH2 0x71 JUMPI DUP1 PUSH4 0x65C72840 EQ PUSH2 0x134 JUMPI DUP1 PUSH4 0x7D0D3ECD EQ PUSH2 0x155 JUMPI DUP1 PUSH4 0x8DA5CB5B EQ PUSH2 0x175 JUMPI DUP1 PUSH4 0xD3017193 EQ PUSH2 0x188 JUMPI DUP1 PUSH4 0xFC05EC6B EQ PUSH2 0x19B JUMPI DUP1 PUSH4 0xFF658D18 EQ PUSH2 0x1BB JUMPI PUSH1 0x0 DUP1 REVERT JUMPDEST DUP1 PUSH4 0x14BBA8D9 EQ PUSH2 0xB9 JUMPI DUP1 PUSH4 0x30D5F232 EQ PUSH2 0xC3 JUMPI DUP1 PUSH4 0x33F47AAE EQ PUSH2 0xF3 JUMPI DUP1 PUSH4 0x365B98B2 EQ PUSH2 0x106 JUMPI DUP1 PUSH4 0x3D0E83B7 EQ PUSH2 0x119 JUMPI DUP1 PUSH4 0x3FE95859 EQ PUSH2 0x12C JUMPI JUMPDEST PUSH1 0x0 DUP1 REVERT JUMPDEST PUSH2 0xC1 PUSH2 0x1CE JUMP JUMPDEST STOP JUMPDEST PUSH2 0xD6 PUSH2 0xD1 CALLDATASIZE PUSH1 0x4 PUSH2 0xA0C JUMP JUMPDEST PUSH2 0x327 JUMP JUMPDEST PUSH1 0x40 MLOAD PUSH1 0x1 PUSH1 0x1 PUSH1 0xA0 SHL SUB SWAP1 SWAP2 AND DUP2 MSTORE PUSH1 0x20 ADD JUMPDEST PUSH1 0x40 MLOAD DUP1 SWAP2 SUB SWAP1 RETURN JUMPDEST PUSH2 0xC1 PUSH2 0x101 CALLDATASIZE PUSH1 0x4 PUSH2 0xA3C JUMP JUMPDEST PUSH2 0x35F JUMP JUMPDEST PUSH2 0xD6 PUSH2 0x114 CALLDATASIZE PUSH1 0x4 PUSH2 0xA60 JUMP JUMPDEST PUSH2 0x3A2 JUMP JUMPDEST PUSH2 0xC1 PUSH2 0x127 CALLDATASIZE PUSH1 0x4 PUSH2 0xA60 JUMP JUMPDEST PUSH2 0x3CC JUMP JUMPDEST PUSH2 0xC1 PUSH2 0x441 JUMP JUMPDEST PUSH2 0x147 PUSH2 0x142 CALLDATASIZE PUSH1 0x4 PUSH2 0xA60 JUMP JUMPDEST PUSH2 0x595 JUMP JUMPDEST PUSH1 0x40 MLOAD SWAP1 DUP2 MSTORE PUSH1 0x20 ADD PUSH2 0xEA JUMP JUMPDEST PUSH2 0x147 PUSH2 0x163 CALLDATASIZE PUSH1 0x4 PUSH2 0xA95 JUMP JUMPDEST PUSH1 0x8 PUSH1 0x20 MSTORE PUSH1 0x0 SWAP1 DUP2 MSTORE PUSH1 0x40 SWAP1 KECCAK256 SLOAD DUP2 JUMP JUMPDEST PUSH1 0x0 SLOAD PUSH2 0xD6 SWAP1 PUSH1 0x1 PUSH1 0x1 PUSH1 0xA0 SHL SUB AND DUP2 JUMP JUMPDEST PUSH2 0xC1 PUSH2 0x196 CALLDATASIZE PUSH1 0x4 PUSH2 0xAB0 JUMP JUMPDEST PUSH2 0x5A6 JUMP JUMPDEST PUSH2 0x147 PUSH2 0x1A9 CALLDATASIZE PUSH1 0x4 PUSH2 0xA95 JUMP JUMPDEST PUSH1 0x9 PUSH1 0x20 MSTORE PUSH1 0x0 SWAP1 DUP2 MSTORE PUSH1 0x40 SWAP1 KECCAK256 SLOAD DUP2 JUMP JUMPDEST PUSH2 0xC1 PUSH2 0x1C9 CALLDATASIZE PUSH1 0x4 PUSH2 0xA60 JUMP JUMPDEST PUSH2 0x6B8 JUMP JUMPDEST CALLER PUSH1 0x0 SWAP1 DUP2 MSTORE PUSH1 0x8 PUSH1 0x20 MSTORE PUSH1 0x40 SWAP1 KECCAK256 SLOAD TIMESTAMP SWAP1 PUSH2 0x22A JUMPI PUSH1 0x40 MLOAD PUSH3 0x461BCD PUSH1 0xE5 SHL DUP2 MSTORE PUSH1 0x20 PUSH1 0x4 DUP3 ADD MSTORE PUSH1 0x16 PUSH1 0x24 DUP3 ADD MSTORE PUSH22 0x596F752063616E277420676574206D6F6E6579212121 PUSH1 0x50 SHL PUSH1 0x44 DUP3 ADD MSTORE PUSH1 0x64 ADD JUMPDEST PUSH1 0x40 MLOAD DUP1 SWAP2 SUB SWAP1 REVERT JUMPDEST PUSH1 0x6 SLOAD CALLER PUSH1 0x0 DUP2 DUP2 MSTORE PUSH1 0x8 PUSH1 0x20 MSTORE PUSH1 0x40 SWAP1 DUP2 SWAP1 KECCAK256 SLOAD SWAP1 MLOAD PUSH4 0xA9059CBB PUSH1 0xE0 SHL DUP2 MSTORE PUSH1 0x4 DUP2 ADD SWAP3 SWAP1 SWAP3 MSTORE PUSH1 0x24 DUP3 ADD MSTORE PUSH1 0x1 PUSH1 0x1 PUSH1 0xA0 SHL SUB SWAP1 SWAP2 AND SWAP1 PUSH4 0xA9059CBB SWAP1 PUSH1 0x44 ADD PUSH1 0x20 PUSH1 0x40 MLOAD DUP1 DUP4 SUB DUP2 PUSH1 0x0 DUP8 DUP1 EXTCODESIZE ISZERO DUP1 ISZERO PUSH2 0x287 JUMPI PUSH1 0x0 DUP1 REVERT JUMPDEST POP GAS CALL ISZERO DUP1 ISZERO PUSH2 0x29B JUMPI RETURNDATASIZE PUSH1 0x0 DUP1 RETURNDATACOPY RETURNDATASIZE PUSH1 0x0 REVERT JUMPDEST POP POP POP POP PUSH1 0x40 MLOAD RETURNDATASIZE PUSH1 0x1F NOT PUSH1 0x1F DUP3 ADD AND DUP3 ADD DUP1 PUSH1 0x40 MSTORE POP DUP2 ADD SWAP1 PUSH2 0x2BF SWAP2 SWAP1 PUSH2 0xADA JUMP JUMPDEST POP PUSH1 0x0 DUP1 SLOAD CALLER DUP1 DUP4 MSTORE PUSH1 0x8 PUSH1 0x20 SWAP1 DUP2 MSTORE PUSH1 0x40 SWAP4 DUP5 SWAP1 KECCAK256 SLOAD SWAP4 MLOAD SWAP4 DUP5 MSTORE SWAP1 SWAP3 PUSH1 0x1 PUSH1 0x1 PUSH1 0xA0 SHL SUB SWAP1 SWAP3 AND SWAP2 PUSH32 0x8422E69C9CFA5C44B34C1D6050C86B5DCD958A8EF60FF1665BD0BA241118D4AB SWAP2 ADD PUSH1 0x40 MLOAD DUP1 SWAP2 SUB SWAP1 LOG3 POP CALLER PUSH1 0x0 SWAP1 DUP2 MSTORE PUSH1 0x8 PUSH1 0x20 MSTORE PUSH1 0x40 DUP2 KECCAK256 SSTORE JUMP JUMPDEST PUSH1 0x7 PUSH1 0x20 MSTORE DUP2 PUSH1 0x0 MSTORE PUSH1 0x40 PUSH1 0x0 KECCAK256 DUP2 DUP2 SLOAD DUP2 LT PUSH2 0x343 JUMPI PUSH1 0x0 DUP1 REVERT JUMPDEST PUSH1 0x0 SWAP2 DUP3 MSTORE PUSH1 0x20 SWAP1 SWAP2 KECCAK256 ADD SLOAD PUSH1 0x1 PUSH1 0x1 PUSH1 0xA0 SHL SUB AND SWAP2 POP DUP3 SWAP1 POP JUMP JUMPDEST PUSH1 0x0 SLOAD PUSH1 0x1 PUSH1 0x1 PUSH1 0xA0 SHL SUB AND CALLER EQ PUSH2 0x389 JUMPI PUSH1 0x40 MLOAD PUSH3 0x461BCD PUSH1 0xE5 SHL DUP2 MSTORE PUSH1 0x4 ADD PUSH2 0x221 SWAP1 PUSH2 0xAF7 JUMP JUMPDEST PUSH1 0x2 DUP1 SLOAD PUSH1 0xFF NOT AND DUP3 ISZERO ISZERO OR SWAP1 SSTORE PUSH2 0x39F PUSH2 0x774 JUMP JUMPDEST POP JUMP JUMPDEST PUSH1 0x1 DUP2 DUP2 SLOAD DUP2 LT PUSH2 0x3B2 JUMPI PUSH1 0x0 DUP1 REVERT JUMPDEST PUSH1 0x0 SWAP2 DUP3 MSTORE PUSH1 0x20 SWAP1 SWAP2 KECCAK256 ADD SLOAD PUSH1 0x1 PUSH1 0x1 PUSH1 0xA0 SHL SUB AND SWAP1 POP DUP2 JUMP JUMPDEST PUSH1 0x0 SLOAD PUSH1 0x1 PUSH1 0x1 PUSH1 0xA0 SHL SUB AND CALLER EQ PUSH2 0x3F6 JUMPI PUSH1 0x40 MLOAD PUSH3 0x461BCD PUSH1 0xE5 SHL DUP2 MSTORE PUSH1 0x4 ADD PUSH2 0x221 SWAP1 PUSH2 0xAF7 JUMP JUMPDEST PUSH1 0x4 DUP2 SWAP1 SSTORE PUSH2 0x403 PUSH2 0x774 JUMP JUMPDEST PUSH32 0xC5D63733120748B0343A1DE3766719DDDB8A29F45AC6856E571912B7DD7D4E54 PUSH1 0x4 SLOAD PUSH1 0x40 MLOAD PUSH2 0x436 SWAP2 DUP2 MSTORE PUSH1 0x20 ADD SWAP1 JUMP JUMPDEST PUSH1 0x40 MLOAD DUP1 SWAP2 SUB SWAP1 LOG1 POP JUMP JUMPDEST CALLER PUSH1 0x0 SWAP1 DUP2 MSTORE PUSH1 0x9 PUSH1 0x20 MSTORE PUSH1 0x40 SWAP1 KECCAK256 SLOAD TIMESTAMP SWAP1 PUSH2 0x498 JUMPI PUSH1 0x40 MLOAD PUSH3 0x461BCD PUSH1 0xE5 SHL DUP2 MSTORE PUSH1 0x20 PUSH1 0x4 DUP3 ADD MSTORE PUSH1 0x16 PUSH1 0x24 DUP3 ADD MSTORE PUSH22 0x596F752063616E277420676574206D6F6E6579212121 PUSH1 0x50 SHL PUSH1 0x44 DUP3 ADD MSTORE PUSH1 0x64 ADD PUSH2 0x221 JUMP JUMPDEST PUSH1 0x6 SLOAD CALLER PUSH1 0x0 DUP2 DUP2 MSTORE PUSH1 0x9 PUSH1 0x20 MSTORE PUSH1 0x40 SWAP1 DUP2 SWAP1 KECCAK256 SLOAD SWAP1 MLOAD PUSH4 0xA9059CBB PUSH1 0xE0 SHL DUP2 MSTORE PUSH1 0x4 DUP2 ADD SWAP3 SWAP1 SWAP3 MSTORE PUSH1 0x24 DUP3 ADD MSTORE PUSH1 0x1 PUSH1 0x1 PUSH1 0xA0 SHL SUB SWAP1 SWAP2 AND SWAP1 PUSH4 0xA9059CBB SWAP1 PUSH1 0x44 ADD PUSH1 0x20 PUSH1 0x40 MLOAD DUP1 DUP4 SUB DUP2 PUSH1 0x0 DUP8 DUP1 EXTCODESIZE ISZERO DUP1 ISZERO PUSH2 0x4F5 JUMPI PUSH1 0x0 DUP1 REVERT JUMPDEST POP GAS CALL ISZERO DUP1 ISZERO PUSH2 0x509 JUMPI RETURNDATASIZE PUSH1 0x0 DUP1 RETURNDATACOPY RETURNDATASIZE PUSH1 0x0 REVERT JUMPDEST POP POP POP POP PUSH1 0x40 MLOAD RETURNDATASIZE PUSH1 0x1F NOT PUSH1 0x1F DUP3 ADD AND DUP3 ADD DUP1 PUSH1 0x40 MSTORE POP DUP2 ADD SWAP1 PUSH2 0x52D SWAP2 SWAP1 PUSH2 0xADA JUMP JUMPDEST POP PUSH1 0x0 DUP1 SLOAD CALLER DUP1 DUP4 MSTORE PUSH1 0x9 PUSH1 0x20 SWAP1 DUP2 MSTORE PUSH1 0x40 SWAP4 DUP5 SWAP1 KECCAK256 SLOAD SWAP4 MLOAD SWAP4 DUP5 MSTORE SWAP1 SWAP3 PUSH1 0x1 PUSH1 0x1 PUSH1 0xA0 SHL SUB SWAP1 SWAP3 AND SWAP2 PUSH32 0xD217C5246A6E83F8DB513DB1F2C9BC99F520D24EBE8C046DC028F597CAF3ABBC SWAP2 ADD PUSH1 0x40 MLOAD DUP1 SWAP2 SUB SWAP1 LOG3 POP CALLER PUSH1 0x0 SWAP1 DUP2 MSTORE PUSH1 0x9 PUSH1 0x20 MSTORE PUSH1 0x40 DUP2 KECCAK256 SSTORE JUMP JUMPDEST PUSH1 0x0 PUSH2 0x5A0 DUP3 PUSH2 0x951 JUMP JUMPDEST SWAP3 SWAP2 POP POP JUMP JUMPDEST PUSH1 0x0 SLOAD PUSH1 0x1 PUSH1 0x1 PUSH1 0xA0 SHL SUB AND CALLER EQ PUSH2 0x5D0 JUMPI PUSH1 0x40 MLOAD PUSH3 0x461BCD PUSH1 0xE5 SHL DUP2 MSTORE PUSH1 0x4 ADD PUSH2 0x221 SWAP1 PUSH2 0xAF7 JUMP JUMPDEST PUSH1 0x1 DUP1 SLOAD DUP1 DUP3 ADD DUP3 SSTORE PUSH32 0xB10E2D527612073B26EECDFD717E6A320CF44B4AFAC2B0732D9FCBE2B7FA0CF6 ADD DUP1 SLOAD PUSH1 0x1 PUSH1 0x1 PUSH1 0xA0 SHL SUB DUP6 AND PUSH1 0x1 PUSH1 0x1 PUSH1 0xA0 SHL SUB NOT SWAP2 DUP3 AND DUP2 OR SWAP1 SWAP3 SSTORE PUSH1 0x0 DUP5 DUP2 MSTORE PUSH1 0x7 PUSH1 0x20 SWAP1 DUP2 MSTORE PUSH1 0x40 DUP3 KECCAK256 DUP1 SLOAD SWAP6 DUP7 ADD DUP2 SSTORE DUP3 MSTORE SWAP1 KECCAK256 SWAP1 SWAP3 ADD DUP1 SLOAD SWAP1 SWAP3 AND OR SWAP1 SSTORE PUSH1 0x5 SLOAD DUP2 GT ISZERO PUSH2 0x64E JUMPI PUSH1 0x5 DUP2 SWAP1 SSTORE JUMPDEST PUSH1 0x3 SLOAD PUSH1 0x1 PUSH1 0x1 PUSH1 0xA0 SHL SUB DUP4 AND PUSH1 0x0 SWAP1 DUP2 MSTORE PUSH1 0x8 PUSH1 0x20 MSTORE PUSH1 0x40 SWAP1 KECCAK256 SSTORE PUSH2 0x672 PUSH2 0x774 JUMP JUMPDEST DUP2 PUSH1 0x1 PUSH1 0x1 PUSH1 0xA0 SHL SUB AND PUSH31 0x6F1DAA982B4E4055BFB8CFC952DFD2E41973F284EB23011AFE4400A1C0CF91 DUP3 PUSH1 0x40 MLOAD PUSH2 0x6AC SWAP2 DUP2 MSTORE PUSH1 0x20 ADD SWAP1 JUMP JUMPDEST PUSH1 0x40 MLOAD DUP1 SWAP2 SUB SWAP1 LOG2 POP POP JUMP JUMPDEST PUSH1 0x0 SLOAD PUSH1 0x1 PUSH1 0x1 PUSH1 0xA0 SHL SUB AND CALLER EQ PUSH2 0x6E2 JUMPI PUSH1 0x40 MLOAD PUSH3 0x461BCD PUSH1 0xE5 SHL DUP2 MSTORE PUSH1 0x4 ADD PUSH2 0x221 SWAP1 PUSH2 0xAF7 JUMP JUMPDEST PUSH1 0x3 DUP2 SWAP1 SSTORE PUSH1 0x0 JUMPDEST PUSH1 0x1 SLOAD DUP2 LT ISZERO PUSH2 0x743 JUMPI DUP2 PUSH1 0x8 PUSH1 0x0 PUSH1 0x1 DUP5 DUP2 SLOAD DUP2 LT PUSH2 0x70C JUMPI PUSH2 0x70C PUSH2 0xB2E JUMP JUMPDEST PUSH1 0x0 SWAP2 DUP3 MSTORE PUSH1 0x20 DUP1 DUP4 KECCAK256 SWAP1 SWAP2 ADD SLOAD PUSH1 0x1 PUSH1 0x1 PUSH1 0xA0 SHL SUB AND DUP4 MSTORE DUP3 ADD SWAP3 SWAP1 SWAP3 MSTORE PUSH1 0x40 ADD SWAP1 KECCAK256 SSTORE DUP1 PUSH2 0x73B DUP2 PUSH2 0xB5A JUMP JUMPDEST SWAP2 POP POP PUSH2 0x6EA JUMP JUMPDEST POP PUSH1 0x40 MLOAD DUP2 DUP2 MSTORE PUSH32 0xB7EBB57E0084A68FD40F3C49B6AEF62866FD14401848AFFD7E9B72DBD64E7E64 SWAP1 PUSH1 0x20 ADD PUSH2 0x436 JUMP JUMPDEST PUSH1 0x0 SLOAD PUSH1 0x1 PUSH1 0x1 PUSH1 0xA0 SHL SUB AND CALLER EQ PUSH2 0x79E JUMPI PUSH1 0x40 MLOAD PUSH3 0x461BCD PUSH1 0xE5 SHL DUP2 MSTORE PUSH1 0x4 ADD PUSH2 0x221 SWAP1 PUSH2 0xAF7 JUMP JUMPDEST PUSH1 0x4 SLOAD PUSH1 0x2 SLOAD PUSH1 0xFF AND ISZERO ISZERO PUSH1 0x1 EQ ISZERO PUSH2 0x882 JUMPI PUSH1 0x5 SLOAD JUMPDEST DUP1 ISZERO PUSH2 0x87E JUMPI PUSH1 0x0 DUP2 DUP2 MSTORE PUSH1 0x7 PUSH1 0x20 MSTORE PUSH1 0x40 SWAP1 KECCAK256 SLOAD ISZERO PUSH2 0x86C JUMPI PUSH2 0x7DA PUSH1 0x2 DUP4 PUSH2 0xB8B JUMP JUMPDEST SWAP2 POP PUSH1 0x0 JUMPDEST PUSH1 0x0 DUP3 DUP2 MSTORE PUSH1 0x7 PUSH1 0x20 MSTORE PUSH1 0x40 SWAP1 KECCAK256 SLOAD DUP2 LT ISZERO PUSH2 0x86A JUMPI PUSH1 0x0 DUP3 DUP2 MSTORE PUSH1 0x7 PUSH1 0x20 MSTORE PUSH1 0x40 SWAP1 KECCAK256 SLOAD PUSH2 0x80E SWAP1 DUP5 PUSH2 0xB8B JUMP JUMPDEST PUSH1 0x0 DUP4 DUP2 MSTORE PUSH1 0x7 PUSH1 0x20 MSTORE PUSH1 0x40 DUP2 KECCAK256 DUP1 SLOAD PUSH1 0x9 SWAP3 SWAP2 SWAP1 DUP6 SWAP1 DUP2 LT PUSH2 0x833 JUMPI PUSH2 0x833 PUSH2 0xB2E JUMP JUMPDEST PUSH1 0x0 SWAP2 DUP3 MSTORE PUSH1 0x20 DUP1 DUP4 KECCAK256 SWAP1 SWAP2 ADD SLOAD PUSH1 0x1 PUSH1 0x1 PUSH1 0xA0 SHL SUB AND DUP4 MSTORE DUP3 ADD SWAP3 SWAP1 SWAP3 MSTORE PUSH1 0x40 ADD SWAP1 KECCAK256 SSTORE DUP1 PUSH2 0x862 DUP2 PUSH2 0xB5A JUMP JUMPDEST SWAP2 POP POP PUSH2 0x7DF JUMP JUMPDEST POP JUMPDEST DUP1 PUSH2 0x876 DUP2 PUSH2 0xBAD JUMP JUMPDEST SWAP2 POP POP PUSH2 0x7B5 JUMP JUMPDEST POP POP JUMP JUMPDEST PUSH1 0x1 JUMPDEST PUSH1 0x5 SLOAD DUP2 GT PUSH2 0x87E JUMPI PUSH1 0x0 DUP2 DUP2 MSTORE PUSH1 0x7 PUSH1 0x20 MSTORE PUSH1 0x40 SWAP1 KECCAK256 SLOAD ISZERO PUSH2 0x93F JUMPI PUSH2 0x8AD PUSH1 0x2 DUP4 PUSH2 0xB8B JUMP JUMPDEST SWAP2 POP PUSH1 0x0 JUMPDEST PUSH1 0x0 DUP3 DUP2 MSTORE PUSH1 0x7 PUSH1 0x20 MSTORE PUSH1 0x40 SWAP1 KECCAK256 SLOAD DUP2 LT ISZERO PUSH2 0x93D JUMPI PUSH1 0x0 DUP3 DUP2 MSTORE PUSH1 0x7 PUSH1 0x20 MSTORE PUSH1 0x40 SWAP1 KECCAK256 SLOAD PUSH2 0x8E1 SWAP1 DUP5 PUSH2 0xB8B JUMP JUMPDEST PUSH1 0x0 DUP4 DUP2 MSTORE PUSH1 0x7 PUSH1 0x20 MSTORE PUSH1 0x40 DUP2 KECCAK256 DUP1 SLOAD PUSH1 0x9 SWAP3 SWAP2 SWAP1 DUP6 SWAP1 DUP2 LT PUSH2 0x906 JUMPI PUSH2 0x906 PUSH2 0xB2E JUMP JUMPDEST PUSH1 0x0 SWAP2 DUP3 MSTORE PUSH1 0x20 DUP1 DUP4 KECCAK256 SWAP1 SWAP2 ADD SLOAD PUSH1 0x1 PUSH1 0x1 PUSH1 0xA0 SHL SUB AND DUP4 MSTORE DUP3 ADD SWAP3 SWAP1 SWAP3 MSTORE PUSH1 0x40 ADD SWAP1 KECCAK256 SSTORE DUP1 PUSH2 0x935 DUP2 PUSH2 0xB5A JUMP JUMPDEST SWAP2 POP POP PUSH2 0x8B2 JUMP JUMPDEST POP JUMPDEST DUP1 PUSH2 0x949 DUP2 PUSH2 0xB5A JUMP JUMPDEST SWAP2 POP POP PUSH2 0x885 JUMP JUMPDEST PUSH1 0x0 PUSH2 0x968 PUSH2 0x963 PUSH3 0x15180 DUP5 PUSH2 0xB8B JUMP JUMPDEST PUSH2 0x970 JUMP JUMPDEST SWAP5 SWAP4 POP POP POP POP JUMP JUMPDEST PUSH1 0x0 DUP1 DUP1 DUP4 PUSH3 0x264965 DUP2 ADD DUP3 PUSH3 0x23AB1 PUSH1 0x4 DUP4 MUL SDIV SWAP1 POP PUSH1 0x4 PUSH1 0x3 PUSH3 0x23AB1 DUP4 MUL ADD SDIV SWAP1 SWAP2 SUB SWAP1 PUSH1 0x0 PUSH3 0x164B09 PUSH2 0xFA0 PUSH1 0x1 DUP6 ADD MUL SDIV SWAP1 POP PUSH1 0x4 PUSH2 0x5B5 DUP3 MUL SDIV DUP4 SUB PUSH1 0x1F ADD SWAP3 POP PUSH1 0x0 PUSH2 0x98F DUP5 PUSH1 0x50 MUL DUP2 PUSH2 0x9CD JUMPI PUSH2 0x9CD PUSH2 0xB75 JUMP JUMPDEST SDIV SWAP1 POP PUSH1 0x0 PUSH1 0x50 PUSH2 0x98F DUP4 MUL SDIV DUP6 SUB SWAP1 POP PUSH1 0xB DUP3 SDIV PUSH1 0x30 NOT SWAP5 SWAP1 SWAP5 ADD PUSH1 0x64 MUL SWAP3 SWAP1 SWAP3 ADD DUP4 ADD SWAP10 PUSH1 0x2 PUSH1 0xC SWAP1 SWAP5 MUL SWAP1 SWAP2 SUB SWAP3 SWAP1 SWAP3 ADD SWAP8 POP SWAP6 POP SWAP4 POP POP POP POP JUMP JUMPDEST PUSH1 0x0 DUP1 PUSH1 0x40 DUP4 DUP6 SUB SLT ISZERO PUSH2 0xA1F JUMPI PUSH1 0x0 DUP1 REVERT JUMPDEST POP POP DUP1 CALLDATALOAD SWAP3 PUSH1 0x20 SWAP1 SWAP2 ADD CALLDATALOAD SWAP2 POP JUMP JUMPDEST DUP1 ISZERO ISZERO DUP2 EQ PUSH2 0x39F JUMPI PUSH1 0x0 DUP1 REVERT JUMPDEST PUSH1 0x0 PUSH1 0x20 DUP3 DUP5 SUB SLT ISZERO PUSH2 0xA4E JUMPI PUSH1 0x0 DUP1 REVERT JUMPDEST DUP2 CALLDATALOAD PUSH2 0xA59 DUP2 PUSH2 0xA2E JUMP JUMPDEST SWAP4 SWAP3 POP POP POP JUMP JUMPDEST PUSH1 0x0 PUSH1 0x20 DUP3 DUP5 SUB SLT ISZERO PUSH2 0xA72 JUMPI PUSH1 0x0 DUP1 REVERT JUMPDEST POP CALLDATALOAD SWAP2 SWAP1 POP JUMP JUMPDEST DUP1 CALLDATALOAD PUSH1 0x1 PUSH1 0x1 PUSH1 0xA0 SHL SUB DUP2 AND DUP2 EQ PUSH2 0xA90 JUMPI PUSH1 0x0 DUP1 REVERT JUMPDEST SWAP2 SWAP1 POP JUMP JUMPDEST PUSH1 0x0 PUSH1 0x20 DUP3 DUP5 SUB SLT ISZERO PUSH2 0xAA7 JUMPI PUSH1 0x0 DUP1 REVERT JUMPDEST PUSH2 0xA59 DUP3 PUSH2 0xA79 JUMP JUMPDEST PUSH1 0x0 DUP1 PUSH1 0x40 DUP4 DUP6 SUB SLT ISZERO PUSH2 0xAC3 JUMPI PUSH1 0x0 DUP1 REVERT JUMPDEST PUSH2 0xACC DUP4 PUSH2 0xA79 JUMP JUMPDEST SWAP5 PUSH1 0x20 SWAP4 SWAP1 SWAP4 ADD CALLDATALOAD SWAP4 POP POP POP JUMP JUMPDEST PUSH1 0x0 PUSH1 0x20 DUP3 DUP5 SUB SLT ISZERO PUSH2 0xAEC JUMPI PUSH1 0x0 DUP1 REVERT JUMPDEST DUP2 MLOAD PUSH2 0xA59 DUP2 PUSH2 0xA2E JUMP JUMPDEST PUSH1 0x20 DUP1 DUP3 MSTORE PUSH1 0x1B SWAP1 DUP3 ADD MSTORE PUSH32 0x4F6E6C79206F776E6572732061726520616C6C6F776564212121210000000000 PUSH1 0x40 DUP3 ADD MSTORE PUSH1 0x60 ADD SWAP1 JUMP JUMPDEST PUSH4 0x4E487B71 PUSH1 0xE0 SHL PUSH1 0x0 MSTORE PUSH1 0x32 PUSH1 0x4 MSTORE PUSH1 0x24 PUSH1 0x0 REVERT JUMPDEST PUSH4 0x4E487B71 PUSH1 0xE0 SHL PUSH1 0x0 MSTORE PUSH1 0x11 PUSH1 0x4 MSTORE PUSH1 0x24 PUSH1 0x0 REVERT JUMPDEST PUSH1 0x0 PUSH1 0x0 NOT DUP3 EQ ISZERO PUSH2 0xB6E JUMPI PUSH2 0xB6E PUSH2 0xB44 JUMP JUMPDEST POP PUSH1 0x1 ADD SWAP1 JUMP JUMPDEST PUSH4 0x4E487B71 PUSH1 0xE0 SHL PUSH1 0x0 MSTORE PUSH1 0x12 PUSH1 0x4 MSTORE PUSH1 0x24 PUSH1 0x0 REVERT JUMPDEST PUSH1 0x0 DUP3 PUSH2 0xBA8 JUMPI PUSH4 0x4E487B71 PUSH1 0xE0 SHL PUSH1 0x0 MSTORE PUSH1 0x12 PUSH1 0x4 MSTORE PUSH1 0x24 PUSH1 0x0 REVERT JUMPDEST POP DIV SWAP1 JUMP JUMPDEST PUSH1 0x0 DUP2 PUSH2 0xBBC JUMPI PUSH2 0xBBC PUSH2 0xB44 JUMP JUMPDEST POP PUSH1 0x0 NOT ADD SWAP1 JUMP INVALID LOG2 PUSH5 0x6970667358 0x22 SLT KECCAK256 0xB1 0x1F 0xE0 0xAE PUSH12 0x33CA84E815480340E781B139 0x4A 0xCE 0xED 0xD5 EXTCODECOPY SSTORE MULMOD 0x26 SIGNEXTEND EXTCODESIZE 0xCE PUSH11 0xA8FC6864736F6C63430008 MULMOD STOP CALLER "},"methodIdentifiers":{"addUser(address,uint256)":"d3017193","fixed_score(address)":"7d0d3ecd","getDay(uint256)":"65c72840","owner()":"8da5cb5b","roles(uint256,uint256)":"30d5f232","setFixedMonthlyScore(uint256)":"ff658d18","setVariableDirection(bool)":"33f47aae","setVariableMonthlyScore(uint256)":"3d0e83b7","users(uint256)":"365b98b2","variable_score(address)":"fc05ec6b","withdraw_fixed_pay()":"14bba8d9","withdraw_variable_pay()":"3fe95859"}}}}}