{
  "_format": "hh-sol-artifact-1",
  "contractName": "Token",
  "sourceName": "contracts/Token.sol",
  "abi": [
    {
      "inputs": [],
      "stateMutability": "nonpayable",
      "type": "constructor"
    },
    {
      "anonymous": false,
      "inputs": [
        {
          "indexed": false,
          "internalType": "uint256",
          "name": "score",
          "type": "uint256"
        }
      ],
      "name": "Fixed_Score_set",
      "type": "event"
    },
    {
      "anonymous": false,
      "inputs": [
        {
          "indexed": true,
          "internalType": "address",
          "name": "user",
          "type": "address"
        },
        {
          "indexed": false,
          "internalType": "uint256",
          "name": "role",
          "type": "uint256"
        }
      ],
      "name": "User_Added",
      "type": "event"
    },
    {
      "anonymous": false,
      "inputs": [
        {
          "indexed": false,
          "internalType": "uint256",
          "name": "score",
          "type": "uint256"
        }
      ],
      "name": "Variable_Score_set",
      "type": "event"
    },
    {
      "anonymous": false,
      "inputs": [
        {
          "indexed": true,
          "internalType": "address",
          "name": "_from",
          "type": "address"
        },
        {
          "indexed": true,
          "internalType": "address",
          "name": "_to",
          "type": "address"
        },
        {
          "indexed": false,
          "internalType": "uint256",
          "name": "_value",
          "type": "uint256"
        }
      ],
      "name": "withdraw_fixed_pay_event",
      "type": "event"
    },
    {
      "anonymous": false,
      "inputs": [
        {
          "indexed": true,
          "internalType": "address",
          "name": "_from",
          "type": "address"
        },
        {
          "indexed": true,
          "internalType": "address",
          "name": "_to",
          "type": "address"
        },
        {
          "indexed": false,
          "internalType": "uint256",
          "name": "_value",
          "type": "uint256"
        }
      ],
      "name": "withdraw_variable_pay_event",
      "type": "event"
    },
    {
      "inputs": [
        {
          "internalType": "address",
          "name": "user",
          "type": "address"
        },
        {
          "internalType": "uint256",
          "name": "role",
          "type": "uint256"
        }
      ],
      "name": "addUser",
      "outputs": [],
      "stateMutability": "nonpayable",
      "type": "function"
    },
    {
      "inputs": [
        {
          "internalType": "address",
          "name": "",
          "type": "address"
        }
      ],
      "name": "fixed_score",
      "outputs": [
        {
          "internalType": "uint256",
          "name": "",
          "type": "uint256"
        }
      ],
      "stateMutability": "view",
      "type": "function"
    },
    {
      "inputs": [
        {
          "internalType": "uint256",
          "name": "timestamp",
          "type": "uint256"
        }
      ],
      "name": "getDay",
      "outputs": [
        {
          "internalType": "uint256",
          "name": "day",
          "type": "uint256"
        }
      ],
      "stateMutability": "pure",
      "type": "function"
    },
    {
      "inputs": [],
      "name": "owner",
      "outputs": [
        {
          "internalType": "address",
          "name": "",
          "type": "address"
        }
      ],
      "stateMutability": "view",
      "type": "function"
    },
    {
      "inputs": [
        {
          "internalType": "uint256",
          "name": "",
          "type": "uint256"
        },
        {
          "internalType": "uint256",
          "name": "",
          "type": "uint256"
        }
      ],
      "name": "roles",
      "outputs": [
        {
          "internalType": "address",
          "name": "",
          "type": "address"
        }
      ],
      "stateMutability": "view",
      "type": "function"
    },
    {
      "inputs": [
        {
          "internalType": "uint256",
          "name": "fixedScore",
          "type": "uint256"
        }
      ],
      "name": "setFixedMonthlyScore",
      "outputs": [],
      "stateMutability": "nonpayable",
      "type": "function"
    },
    {
      "inputs": [
        {
          "internalType": "bool",
          "name": "topToBottom",
          "type": "bool"
        }
      ],
      "name": "setVariableDirection",
      "outputs": [],
      "stateMutability": "nonpayable",
      "type": "function"
    },
    {
      "inputs": [
        {
          "internalType": "uint256",
          "name": "variableScore",
          "type": "uint256"
        }
      ],
      "name": "setVariableMonthlyScore",
      "outputs": [],
      "stateMutability": "nonpayable",
      "type": "function"
    },
    {
      "inputs": [
        {
          "internalType": "uint256",
          "name": "",
          "type": "uint256"
        }
      ],
      "name": "users",
      "outputs": [
        {
          "internalType": "address",
          "name": "",
          "type": "address"
        }
      ],
      "stateMutability": "view",
      "type": "function"
    },
    {
      "inputs": [
        {
          "internalType": "address",
          "name": "",
          "type": "address"
        }
      ],
      "name": "variable_score",
      "outputs": [
        {
          "internalType": "uint256",
          "name": "",
          "type": "uint256"
        }
      ],
      "stateMutability": "view",
      "type": "function"
    },
    {
      "inputs": [],
      "name": "withdraw_fixed_pay",
      "outputs": [],
      "stateMutability": "nonpayable",
      "type": "function"
    },
    {
      "inputs": [],
      "name": "withdraw_variable_pay",
      "outputs": [],
      "stateMutability": "nonpayable",
      "type": "function"
    }
  ],
  "bytecode": "0x60806040526002805460ff191660011790556000600455600580546001600160a01b03191673b37a89580231d8a0c47518e6e311473816c48e9d17905534801561004857600080fd5b50600080546001600160a01b03191633179055610c118061006a6000396000f3fe608060405234801561001057600080fd5b50600436106100b45760003560e01c806365c728401161007157806365c72840146101345780637d0d3ecd146101555780638da5cb5b14610175578063d301719314610188578063fc05ec6b1461019b578063ff658d18146101bb57600080fd5b806314bba8d9146100b957806330d5f232146100c357806333f47aae146100f3578063365b98b2146101065780633d0e83b7146101195780633fe958591461012c575b600080fd5b6100c16101ce565b005b6100d66100d1366004610a23565b610284565b6040516001600160a01b0390911681526020015b60405180910390f35b6100c1610101366004610a53565b6102bc565b6100d6610114366004610a77565b610308565b6100c1610127366004610a77565b610332565b6100c16103a7565b610147610142366004610a77565b61045d565b6040519081526020016100ea565b610147610163366004610aac565b60076020526000908152604090205481565b6000546100d6906001600160a01b031681565b6100c1610196366004610ac7565b61046e565b6101476101a9366004610aac565b60086020526000908152604090205481565b6100c16101c9366004610a77565b610564565b600554600080543380835260076020526040928390205492516323b872dd60e01b81526001600160a01b03928316600482015260248101919091526044810192909252429216906323b872dd90606401602060405180830381600087803b15801561023857600080fd5b505af115801561024c573d6000803e3d6000fd5b505050506040513d601f19601f820116820180604052508101906102709190610af1565b505033600090815260076020526040812055565b600660205281600052604060002081815481106102a057600080fd5b6000918252602090912001546001600160a01b03169150829050565b6000546001600160a01b031633146102ef5760405162461bcd60e51b81526004016102e690610b0e565b60405180910390fd5b6002805460ff1916821515179055610305610725565b50565b6001818154811061031857600080fd5b6000918252602090912001546001600160a01b0316905081565b6000546001600160a01b0316331461035c5760405162461bcd60e51b81526004016102e690610b0e565b6003819055610369610725565b7fc5d63733120748b0343a1de3766719dddb8a29f45ac6856e571912b7dd7d4e5460035460405161039c91815260200190565b60405180910390a150565b600554600080543380835260086020526040928390205492516323b872dd60e01b81526001600160a01b03928316600482015260248101919091526044810192909252429216906323b872dd90606401602060405180830381600087803b15801561041157600080fd5b505af1158015610425573d6000803e3d6000fd5b505050506040513d601f19601f820116820180604052508101906104499190610af1565b505033600090815260086020526040812055565b600061046882610902565b92915050565b6000546001600160a01b031633146104985760405162461bcd60e51b81526004016102e690610b0e565b6001805480820182557fb10e2d527612073b26eecdfd717e6a320cf44b4afac2b0732d9fcbe2b7fa0cf60180546001600160a01b0385166001600160a01b0319918216811790925560008481526006602090815260408220805495860181558252902090920180549092161790556004548111156105165760048190555b61051e610725565b816001600160a01b03167e6f1daa982b4e4055bfb8cfc952dfd2e41973f284eb23011afe4400a1c0cf918260405161055891815260200190565b60405180910390a25050565b6000546001600160a01b0316331461058e5760405162461bcd60e51b81526004016102e690610b0e565b61059781610921565b60005b6001548110156106f4578160076000600184815481106105bc576105bc610b45565b60009182526020808320909101546001600160a01b03908116845290830193909352604090910190209190915560055460018054919092169163095ea7b3918490811061060b5761060b610b45565b9060005260206000200160009054906101000a90046001600160a01b0316600760006001868154811061064057610640610b45565b6000918252602080832091909101546001600160a01b039081168452908301939093526040918201902054905160e085901b6001600160e01b03191681529290911660048301526024820152604401602060405180830381600087803b1580156106a957600080fd5b505af11580156106bd573d6000803e3d6000fd5b505050506040513d601f19601f820116820180604052508101906106e19190610af1565b50806106ec81610b71565b91505061059a565b506040518181527fb7ebb57e0084a68fd40f3c49b6aef62866fd14401848affd7e9b72dbd64e7e649060200161039c565b6000546001600160a01b0316331461074f5760405162461bcd60e51b81526004016102e690610b0e565b60035460025460ff16151560011415610833576004545b801561082f576000818152600660205260409020541561081d5761078b600283610ba2565b915060005b60008281526006602052604090205481101561081b576000828152600660205260409020546107bf9084610ba2565b600083815260066020526040812080546008929190859081106107e4576107e4610b45565b60009182526020808320909101546001600160a01b031683528201929092526040019020558061081381610b71565b915050610790565b505b8061082781610bc4565b915050610766565b5050565b60015b600454811161082f57600081815260066020526040902054156108f05761085e600283610ba2565b915060005b6000828152600660205260409020548110156108ee576000828152600660205260409020546108929084610ba2565b600083815260066020526040812080546008929190859081106108b7576108b7610b45565b60009182526020808320909101546001600160a01b03168352820192909252604001902055806108e681610b71565b915050610863565b505b806108fa81610b71565b915050610836565b60006109196109146201518084610ba2565b610966565b949350505050565b6103058160405160240161093791815260200190565b60408051601f198184030181529190526020810180516001600160e01b031663f82c50f160e01b179052610a02565b60008080836226496581018262023ab1600483020590506004600362023ab18302010590910390600062164b09610fa0600185010205905060046105b58202058303601f019250600061098f84605002816109c3576109c3610b8c565b0590506000605061098f83020585039050600b820560301994909401606402929092018301996002600c90940290910392909201975095509350505050565b80516a636f6e736f6c652e6c6f67602083016000808483855afa5050505050565b60008060408385031215610a3657600080fd5b50508035926020909101359150565b801515811461030557600080fd5b600060208284031215610a6557600080fd5b8135610a7081610a45565b9392505050565b600060208284031215610a8957600080fd5b5035919050565b80356001600160a01b0381168114610aa757600080fd5b919050565b600060208284031215610abe57600080fd5b610a7082610a90565b60008060408385031215610ada57600080fd5b610ae383610a90565b946020939093013593505050565b600060208284031215610b0357600080fd5b8151610a7081610a45565b6020808252601b908201527f4f6e6c79206f776e6572732061726520616c6c6f776564212121210000000000604082015260600190565b634e487b7160e01b600052603260045260246000fd5b634e487b7160e01b600052601160045260246000fd5b6000600019821415610b8557610b85610b5b565b5060010190565b634e487b7160e01b600052601260045260246000fd5b600082610bbf57634e487b7160e01b600052601260045260246000fd5b500490565b600081610bd357610bd3610b5b565b50600019019056fea26469706673582212202c69cf8d5562188ab622bd5fa9c75499bc02fa620b4098d7db964f225681043264736f6c63430008090033",
  "linkReferences": {},
  "deployedLinkReferences": {}
}