{
  "_format": "hh-sol-artifact-1",
  "contractName": "Token",
  "sourceName": "contracts/Token.sol",
  "abi": [
    {
      "inputs": [],
      "stateMutability": "nonpayable",
      "type": "constructor"
    },
    {
      "anonymous": false,
      "inputs": [
        {
          "indexed": false,
          "internalType": "uint256",
          "name": "score",
          "type": "uint256"
        }
      ],
      "name": "Fixed_Score_set",
      "type": "event"
    },
    {
      "anonymous": false,
      "inputs": [
        {
          "indexed": true,
          "internalType": "address",
          "name": "user",
          "type": "address"
        },
        {
          "indexed": false,
          "internalType": "uint256",
          "name": "role",
          "type": "uint256"
        }
      ],
      "name": "User_Added",
      "type": "event"
    },
    {
      "anonymous": false,
      "inputs": [
        {
          "indexed": false,
          "internalType": "uint256",
          "name": "score",
          "type": "uint256"
        }
      ],
      "name": "Variable_Score_set",
      "type": "event"
    },
    {
      "anonymous": false,
      "inputs": [
        {
          "indexed": true,
          "internalType": "address",
          "name": "_from",
          "type": "address"
        },
        {
          "indexed": true,
          "internalType": "address",
          "name": "_to",
          "type": "address"
        },
        {
          "indexed": false,
          "internalType": "uint256",
          "name": "_value",
          "type": "uint256"
        }
      ],
      "name": "withdraw_fixed_pay_event",
      "type": "event"
    },
    {
      "anonymous": false,
      "inputs": [
        {
          "indexed": true,
          "internalType": "address",
          "name": "_from",
          "type": "address"
        },
        {
          "indexed": true,
          "internalType": "address",
          "name": "_to",
          "type": "address"
        },
        {
          "indexed": false,
          "internalType": "uint256",
          "name": "_value",
          "type": "uint256"
        }
      ],
      "name": "withdraw_variable_pay_event",
      "type": "event"
    },
    {
      "inputs": [
        {
          "internalType": "address",
          "name": "user",
          "type": "address"
        },
        {
          "internalType": "uint256",
          "name": "role",
          "type": "uint256"
        }
      ],
      "name": "addUser",
      "outputs": [],
      "stateMutability": "nonpayable",
      "type": "function"
    },
    {
      "inputs": [
        {
          "internalType": "address",
          "name": "",
          "type": "address"
        }
      ],
      "name": "fixed_score",
      "outputs": [
        {
          "internalType": "uint256",
          "name": "",
          "type": "uint256"
        }
      ],
      "stateMutability": "view",
      "type": "function"
    },
    {
      "inputs": [
        {
          "internalType": "uint256",
          "name": "timestamp",
          "type": "uint256"
        }
      ],
      "name": "getDay",
      "outputs": [
        {
          "internalType": "uint256",
          "name": "day",
          "type": "uint256"
        }
      ],
      "stateMutability": "pure",
      "type": "function"
    },
    {
      "inputs": [],
      "name": "owner",
      "outputs": [
        {
          "internalType": "address",
          "name": "",
          "type": "address"
        }
      ],
      "stateMutability": "view",
      "type": "function"
    },
    {
      "inputs": [
        {
          "internalType": "uint256",
          "name": "",
          "type": "uint256"
        },
        {
          "internalType": "uint256",
          "name": "",
          "type": "uint256"
        }
      ],
      "name": "roles",
      "outputs": [
        {
          "internalType": "address",
          "name": "",
          "type": "address"
        }
      ],
      "stateMutability": "view",
      "type": "function"
    },
    {
      "inputs": [
        {
          "internalType": "uint256",
          "name": "fixedScore",
          "type": "uint256"
        }
      ],
      "name": "setFixedMonthlyScore",
      "outputs": [],
      "stateMutability": "nonpayable",
      "type": "function"
    },
    {
      "inputs": [
        {
          "internalType": "bool",
          "name": "topToBottom",
          "type": "bool"
        }
      ],
      "name": "setVariableDirection",
      "outputs": [],
      "stateMutability": "nonpayable",
      "type": "function"
    },
    {
      "inputs": [
        {
          "internalType": "uint256",
          "name": "variableScore",
          "type": "uint256"
        }
      ],
      "name": "setVariableMonthlyScore",
      "outputs": [],
      "stateMutability": "nonpayable",
      "type": "function"
    },
    {
      "inputs": [
        {
          "internalType": "uint256",
          "name": "",
          "type": "uint256"
        }
      ],
      "name": "users",
      "outputs": [
        {
          "internalType": "address",
          "name": "",
          "type": "address"
        }
      ],
      "stateMutability": "view",
      "type": "function"
    },
    {
      "inputs": [
        {
          "internalType": "address",
          "name": "",
          "type": "address"
        }
      ],
      "name": "variable_score",
      "outputs": [
        {
          "internalType": "uint256",
          "name": "",
          "type": "uint256"
        }
      ],
      "stateMutability": "view",
      "type": "function"
    },
    {
      "inputs": [],
      "name": "withdraw_fixed_pay",
      "outputs": [],
      "stateMutability": "nonpayable",
      "type": "function"
    },
    {
      "inputs": [],
      "name": "withdraw_variable_pay",
      "outputs": [],
      "stateMutability": "nonpayable",
      "type": "function"
    }
  ],
  "bytecode": "0x60806040526002805460ff191660011790556000600555600680546001600160a01b03191673b37a89580231d8a0c47518e6e311473816c48e9d17905534801561004857600080fd5b50600080546001600160a01b03191633179055610bfa8061006a6000396000f3fe608060405234801561001057600080fd5b50600436106100b45760003560e01c806365c728401161007157806365c72840146101345780637d0d3ecd146101555780638da5cb5b14610175578063d301719314610188578063fc05ec6b1461019b578063ff658d18146101bb57600080fd5b806314bba8d9146100b957806330d5f232146100c357806333f47aae146100f3578063365b98b2146101065780633d0e83b7146101195780633fe958591461012c575b600080fd5b6100c16101ce565b005b6100d66100d1366004610a0c565b610327565b6040516001600160a01b0390911681526020015b60405180910390f35b6100c1610101366004610a3c565b61035f565b6100d6610114366004610a60565b6103a2565b6100c1610127366004610a60565b6103cc565b6100c1610441565b610147610142366004610a60565b610595565b6040519081526020016100ea565b610147610163366004610a95565b60086020526000908152604090205481565b6000546100d6906001600160a01b031681565b6100c1610196366004610ab0565b6105a6565b6101476101a9366004610a95565b60096020526000908152604090205481565b6100c16101c9366004610a60565b6106b8565b33600090815260086020526040902054429061022a5760405162461bcd60e51b8152602060048201526016602482015275596f752063616e277420676574206d6f6e657921212160501b60448201526064015b60405180910390fd5b600654336000818152600860205260409081902054905163a9059cbb60e01b8152600481019290925260248201526001600160a01b039091169063a9059cbb90604401602060405180830381600087803b15801561028757600080fd5b505af115801561029b573d6000803e3d6000fd5b505050506040513d601f19601f820116820180604052508101906102bf9190610ada565b5060008054338083526008602090815260409384902054935193845290926001600160a01b03909216917f8422e69c9cfa5c44b34c1d6050c86b5dcd958a8ef60ff1665bd0ba241118d4ab910160405180910390a35033600090815260086020526040812055565b6007602052816000526040600020818154811061034357600080fd5b6000918252602090912001546001600160a01b03169150829050565b6000546001600160a01b031633146103895760405162461bcd60e51b815260040161022190610af7565b6002805460ff191682151517905561039f610774565b50565b600181815481106103b257600080fd5b6000918252602090912001546001600160a01b0316905081565b6000546001600160a01b031633146103f65760405162461bcd60e51b815260040161022190610af7565b6004819055610403610774565b7fc5d63733120748b0343a1de3766719dddb8a29f45ac6856e571912b7dd7d4e5460045460405161043691815260200190565b60405180910390a150565b3360009081526009602052604090205442906104985760405162461bcd60e51b8152602060048201526016602482015275596f752063616e277420676574206d6f6e657921212160501b6044820152606401610221565b600654336000818152600960205260409081902054905163a9059cbb60e01b8152600481019290925260248201526001600160a01b039091169063a9059cbb90604401602060405180830381600087803b1580156104f557600080fd5b505af1158015610509573d6000803e3d6000fd5b505050506040513d601f19601f8201168201806040525081019061052d9190610ada565b5060008054338083526009602090815260409384902054935193845290926001600160a01b03909216917fd217c5246a6e83f8db513db1f2c9bc99f520d24ebe8c046dc028f597caf3abbc910160405180910390a35033600090815260096020526040812055565b60006105a082610951565b92915050565b6000546001600160a01b031633146105d05760405162461bcd60e51b815260040161022190610af7565b6001805480820182557fb10e2d527612073b26eecdfd717e6a320cf44b4afac2b0732d9fcbe2b7fa0cf60180546001600160a01b0385166001600160a01b03199182168117909255600084815260076020908152604082208054958601815582529020909201805490921617905560055481111561064e5760058190555b6003546001600160a01b038316600090815260086020526040902055610672610774565b816001600160a01b03167e6f1daa982b4e4055bfb8cfc952dfd2e41973f284eb23011afe4400a1c0cf91826040516106ac91815260200190565b60405180910390a25050565b6000546001600160a01b031633146106e25760405162461bcd60e51b815260040161022190610af7565b600381905560005b6001548110156107435781600860006001848154811061070c5761070c610b2e565b60009182526020808320909101546001600160a01b031683528201929092526040019020558061073b81610b5a565b9150506106ea565b506040518181527fb7ebb57e0084a68fd40f3c49b6aef62866fd14401848affd7e9b72dbd64e7e6490602001610436565b6000546001600160a01b0316331461079e5760405162461bcd60e51b815260040161022190610af7565b60045460025460ff16151560011415610882576005545b801561087e576000818152600760205260409020541561086c576107da600283610b8b565b915060005b60008281526007602052604090205481101561086a5760008281526007602052604090205461080e9084610b8b565b6000838152600760205260408120805460099291908590811061083357610833610b2e565b60009182526020808320909101546001600160a01b031683528201929092526040019020558061086281610b5a565b9150506107df565b505b8061087681610bad565b9150506107b5565b5050565b60015b600554811161087e576000818152600760205260409020541561093f576108ad600283610b8b565b915060005b60008281526007602052604090205481101561093d576000828152600760205260409020546108e19084610b8b565b6000838152600760205260408120805460099291908590811061090657610906610b2e565b60009182526020808320909101546001600160a01b031683528201929092526040019020558061093581610b5a565b9150506108b2565b505b8061094981610b5a565b915050610885565b60006109686109636201518084610b8b565b610970565b949350505050565b60008080836226496581018262023ab1600483020590506004600362023ab18302010590910390600062164b09610fa0600185010205905060046105b58202058303601f019250600061098f84605002816109cd576109cd610b75565b0590506000605061098f83020585039050600b820560301994909401606402929092018301996002600c90940290910392909201975095509350505050565b60008060408385031215610a1f57600080fd5b50508035926020909101359150565b801515811461039f57600080fd5b600060208284031215610a4e57600080fd5b8135610a5981610a2e565b9392505050565b600060208284031215610a7257600080fd5b5035919050565b80356001600160a01b0381168114610a9057600080fd5b919050565b600060208284031215610aa757600080fd5b610a5982610a79565b60008060408385031215610ac357600080fd5b610acc83610a79565b946020939093013593505050565b600060208284031215610aec57600080fd5b8151610a5981610a2e565b6020808252601b908201527f4f6e6c79206f776e6572732061726520616c6c6f776564212121210000000000604082015260600190565b634e487b7160e01b600052603260045260246000fd5b634e487b7160e01b600052601160045260246000fd5b6000600019821415610b6e57610b6e610b44565b5060010190565b634e487b7160e01b600052601260045260246000fd5b600082610ba857634e487b7160e01b600052601260045260246000fd5b500490565b600081610bbc57610bbc610b44565b50600019019056fea2646970667358221220b11fe0ae6b33ca84e815480340e781b1394aceedd53c5509260b3bce6aa8fc6864736f6c63430008090033",
  "linkReferences": {},
  "deployedLinkReferences": {}
}